:020000040800F2
:100000006840002045010008710900081F0700082A
:100010006D0900082D040008334F0008000000009F
:1000200000000000000000000000000081490008FE
:100030006505000800000000B7010008D51D000894
:100040005F0100085F0100085F0100085F01000810
:100050005F0100085F0100085F0100085F01000800
:100060005F0100085F0100085F0100085F010008F0
:100070005F0100085F0100085F0100085F010008E0
:100080005F0100085F0100085F0100085F010008D0
:100090005F0100085F0100085F0100085F010008C0
:1000A0005F0100085F0100085F0100085F010008B0
:1000B0005F0100085F0100085F01000825070008D4
:1000C0005F0100085F0100085F0100085F01000890
:1000D0005F010008D14C0008094D00085F010008CD
:1000E0005F0100085F0100085F0100085F01000870
:1000F0005F0100085F0100085F0100085F01000860
:100100005F0100085F0100085F0100085F0100084F
:100110005F0100085F0100085F0100085F0100083F
:100120005F0100085F0100085F0100085F0100082F
:10013000DFF80CD000F010F9004800470157000824
:10014000684000200648804706480047FEE7FEE773
:10015000FEE7FEE7FEE7FEE7FEE7FEE7FEE7FEE777
:100160006D4A00083101000872B6704762B67047E8
:10017000EFF3108072B6704780F310887047B0FAC2
:1001800080F0704790FAA0F0704730BF704720BFF2
:100190007047000018484FF0FF010170002080F305
:1001A00009881648016881F3088815484FF0805186
:1001B000016062B6FEE772B6EFF3098028B120381D
:1001C00080E8F00F0F490968086000B50E488047C5
:1001D0005DF804EB0D480E490A78027009480D4994
:1001E0000A680260106890E8F00F203080F30988F8
:1001F0004EF0040E62B6704722ED00E01C010020B4
:1002000004ED00E0F80100205519000886010020E7
:1002100087010020FC0100202DE9F05F0546002049
:1002200092469B4688460646814640241BE0284667
:1002300041464746224600F07FF853465A46C01AC8
:10024000914110D311461846224600F066F82D1A47
:1002500067EB01084F4622460120002100F05DF8BF
:1002600017EB00094E41201EA4F10104DFDC4846D3
:1002700031462A464346BDE8F09F40EA01039B070A
:1002800003D009E008C9121F08C0042AFAD203E00B
:1002900011F8013B00F8013B521EF9D27047D2B26F
:1002A00001E000F8012B491EFBD270470022F6E75F
:1002B00010B513460A4604461946FFF7F0FF2046DC
:1002C00010BD421C10F8011B0029FBD1801A704799
:1002D00030B505460020034600E05B1C934205D282
:1002E000EC5CC85C201A01D1002CF6D130BD30B5D1
:1002F0000B46014600202022012409E021FA02F5E4
:100300009D4205D303FA02F5491B04FA02F528447D
:10031000151EA2F10102F1DC30BD202A04DB203AD7
:1003200000FA02F1002070479140C2F1200320FA48
:1003300003F3194390407047202A04DB203A21FA46
:1003400002F00021704721FA02F3D040C2F12002EE
:100350009140084319467047064C074D06E0E06897
:1003600040F0010394E8070098471034AC42F6D3FC
:10037000FFF7E2FE5C6900087C69000870B58C1824
:1003800010F8015B15F0070301D110F8013B2A11A9
:1003900006D110F8012B03E010F8016B01F8016B96
:1003A0005B1EF9D12B0705D40023521E0DD401F892
:1003B000013BFAE710F8013BCB1A921C03E013F85B
:1003C000015B01F8015B521EF9D5A142D8D3002090
:1003D00070BD000070B5064600F010F804460648EF
:1003E0000068B4FBF0F5284601F014FD00F00EF8AB
:1003F00005F0B8F970BD0000AC67000800B585B025
:10040000684604F0CDF9019805B000BD10B500F0C4
:1004100077FA05F089FF04F0F3FF05F0CBF804F05C
:10042000BFFE04F027FA04F0D5FE10BD00BFFEE7C2
:1004300001460846044A1268904203D9024A1268EB
:10044000801A00E0002070471001002070B50025E0
:1004500000BFFFF78DFE054600BF0648046800BFD9
:100460002846FFF789FE00BF2046FFF7E1FF06465A
:10047000304670BD1401002070B50025FFF7E6FF7F
:10048000044600BFFFF774FE054600BF0020044984
:10049000086000BF2846FFF76FFE00BF204670BD12
:1004A0001401002070B5002500BFFFF761FE05466E
:1004B00000BF0648046800BF2846FFF75DFE00BF86
:1004C0002046FFF7B5FF0646304670BD18010020F4
:1004D00010B509480088401C074908800748008873
:1004E00018B900F039F80649086004480088401C33
:1004F0000249088010BD0000040100200601002010
:100500000801002010B50F480088401E0D490880E2
:1005100008460088A0B900F01FF80B49086008469B
:1005200000680A490968441A09480068A04201D2D3
:100530000748046007480068A04201D205480460EB
:1005400010BD0000060100200C0100200801002061
:100550001401002018010020014840687047000085
:10056000001000E070472DE9F0410246002500260A
:10057000002000230024002791F803C00CF00F0591
:1005800091F803C00CF0100CBCF1000F03D091F8EF
:1005900002C04CEA050591F800C0BCF1000F31D053
:1005A000146800202BE04FF0010C0CFA00F3B1F8B6
:1005B00000C00CEA03069E4220D183004FF00F0CCE
:1005C0000CFA03F7BC4305FA03FC4CEA040491F867
:1005D00003C0BCF1280F06D14FF0010C0CFA00FC4F
:1005E000C2F814C00AE091F803C0BCF1480F05D16D
:1005F0004FF0010C0CFA00FCC2F810C0401C082897
:10060000D1D31460B1F800C0BCF1FF0F34DD5468E1
:1006100000202EE000F1080C4FF0010808FA0CF35E
:10062000B1F800C00CEA03069E4221D183004FF0CE
:100630000F0C0CFA03F7BC4305FA03FC4CEA040464
:1006400091F803C0BCF1280F05D100F1080C08FA9D
:100650000CF8C2F8148091F803C0BCF1480F07D120
:1006600000F1080C4FF0010808FA0CF8C2F81080ED
:10067000401C0828CED35460BDE8F081F0B50A468E
:10068000002300240021002500F00046B6F1004FB1
:1006900002D11D4EF16901E01B4E7168C0F30345A4
:1006A00083B200F44016B6F5401F08D121F0706106
:1006B000154E766826F07066134F7E6012E000F4E7
:1006C0008016B6F5801F06D1032606FA05F4A1436D
:1006D00041F0706106E0460D360103FA06F6B143BB
:1006E00041F0706122B1460D360103FA06F631433E
:1006F00000F00046B6F1004F02D1034EF16101E077
:10070000014E7160F0BD0000000001404161704782
:10071000016170470AB1016100E04161704700BFAB
:10072000FEE7000010B51149114800F05FF80128FC
:1007300004D10E490E4800F02BF816E00D490C4884
:1007400000F054F8012804D10A49094800F020F8C3
:100750000BE006490E31064800F048F8012804D1A4
:1007600002490E31024800F013F810BD02000002E9
:10077000005400404000000621B1028842F480622B
:10078000028004E002884FF6FF331A40028070476F
:10079000002221F07F42D3438382704721B1028837
:1007A00042F00102028004E002884FF6FE731A4014
:1007B0000280704710B504460B48844209D10121DC
:1007C000480503F0CDFF00214FF4001003F0C8FFEF
:1007D00008E00121880503F0C3FF00214FF48000E9
:1007E00003F0BEFF10BD00000054004030B50246CB
:1007F00000200023948801F0E06504EA154321F00D
:100800007F41948A0C4014B10BB1012000E000201C
:1008100030BD00002DE9F04385B004460D460026AA
:10082000B1460427DFF8CC80A6884FF6C07006409A
:10083000684603F0B5FFDDF808802F48B8FBF0F0FC
:100840001FFA80F946EA0906A68020884FF6FE7155
:100850000840208000262949286888420CD828684A
:100860004000B8FBF0F087B2042F00DA04273E43C3
:1008700009F10100208427E0E8884BF6FF718842E7
:1008800006D1286800EB4000B8FBF0F087B209E021
:10089000286800EBC00101EB0010B8FBF0F087B254
:1008A00047F48047C7F30B0008B947F0010747F446
:1008B000004006434FF4967009FB00F04FF47A7144
:1008C00090FBF1F0401C2084A683208840F00100BA
:1008D000208026884FF6F5300640A88869890843AD
:1008E00006432680A88929890843208105B0BDE8F0
:1008F000F083000000127A0040420F00A086010041
:1009000008B50121182003F03BFF4FF48040ADF8FB
:10091000000010208DF8030003208DF802006946C6
:100920001048FFF720FE4FF48070ADF80000102053
:100930008DF8030003208DF8020069460A48FFF78E
:1009400012FE8020ADF8000010208DF80300032077
:100950008DF8020069460448FFF705FE05F0BAFE6F
:1009600008BD0000000C01400010014000BFFEE780
:100970007047000070B5002100230F22C47804B333
:10098000154C246804F4E064C4F5E064210AC1F164
:100990000403CA40447804FA03F1847814402143E4
:1009A00009010E4C0678A155047804F01F050124B6
:1009B000AC4005786D11AD0005F1E025C5F80041AA
:1009C00009E0047804F01F050124AC40044D0678CA
:1009D000761145F8264070BD0CED00E000E400E023
:1009E00080E100E002490143024A116070470000C3
:1009F0000000FA050CED00E01548164816481748A7
:100A0000174818481848194819481A481A481B48DE
:100A10001B481C481C481D481D481E481E481F48AE
:100A20001F4820482048214821482248224823487E
:100A3000234824482448254825482648264827484E
:100A40002748284828482948294800BF70470000FF
:100A5000EC6700084C6700085067000854670008FE
:100A6000586700085C670008606700086467000852
:100A7000686700086C670008706700087467000802
:100A8000786700087C6700088067000884670008B2
:100A9000886700088C670008906700089467000862
:100AA000986700089C670008A0670008A467000812
:100AB000A8670008AC670008B0670008B4670008C2
:100AC000B8670008BC670008C0670008C467000872
:100AD000C8670008CC670008D0670008D467000822
:100AE000D8670008DC670008E0670008E4670008D2
:100AF000E867000810B50348006810B101480068B5
:100B0000804710BD3401002070B5044600F0AAF8FB
:100B10000020424908704249087042490870424921
:100B200008604249086042490860424908704248EA
:100B300000680A21B0FBF1F04049086040480068B5
:100B400058B14048056845B13D48066803E0761E47
:100B5000002028602D1D002EF9D100203A490860A0
:100B60003A4908603A4908603A4908603A490860D9
:100B70003A4908603A49086002F0A4F802F0A2F984
:100B8000204602F0F1FD208800B170BD204601F042
:100B900093FD208800B1F8E7204601F0C7FB2088CC
:100BA00000B1F2E7204603F0EDFB208800B1ECE74E
:100BB000204602F01DFD208800B1E6E7204601F046
:100BC00019FA208800B1E0E7204601F009FE2088EC
:100BD00000B1DAE7204601F02BFE208800B1D4E70F
:100BE000204601F0E5FE208800B1CEE7204602F065
:100BF00099F8208800B1C8E7204602F0E9FA208879
:100C000000B1C2E7204603F005FC208800B1BCE734
:100C100001F018F9FFF7F0FE00BFB6E74801002029
:100C200050010020A0010020940100209801002024
:100C30009C010020A8010020AC670008A40100204E
:100C40007C67000878670008280100202C0100203C
:100C50003001002034010020380100203C01002038
:100C600040010020044800680449096800EB810045
:100C7000001F034908607047786700087C67000818
:100C80001C01002010B500242E480078012800D057
:100C900010BD00BFFFF76CFA044600BF2A48007879
:100CA00028B900BF2046FFF767FA00BFF0E72648E3
:100CB0000078401E2449087008460078002805DDA9
:100CC00000BF2046FFF758FA00BFE1E71F48007851
:100CD000002805DD00BF2046FFF74EFA00BFD7E72A
:100CE00001F0DCFF1A4908700846007800EB40006C
:100CF000184951F82000184908600846006817494B
:100D00000968884205D100BF2046FFF735FA00BFC9
:100D1000BEE711480068D0F88C00401C0E490968F5
:100D2000C1F88C000E480068401C0D4908604FF067
:100D300080500C49086000BF2046FFF71DFA00BF35
:100D400000BFA5E75001002048010020A0010020BD
:100D500087010020F8360020FC010020F801002067
:100D6000CC01002004ED00E010B5002420480078FC
:100D7000002800DD10BD1F480078002800DDF9E7DD
:100D800000BFFFF7F5F9044600BF01F087FF1A49DD
:100D900008700846007800EB4000184951F8200020
:100DA000174908600846006816490968884205D155
:100DB00000BF2046FFF7E0F900BFDBE710480068FE
:100DC000D0F88C00401C0E490968C1F88C000E4810
:100DD0000068401C0C4908604FF080500B490860C7
:100DE00000BF2046FFF7C8F900BF00BFC2E7000000
:100DF00048010020A001002087010020F8360020D3
:100E0000FC010020F8010020CC01002004ED00E0EE
:100E100070B5044600251A480078002803DD46F620
:100E20006250208070BD17480078012803D045F635
:100E300089602080F6E714480078FA2803DB45F241
:100E400009202080EEE700BF00BFFFF791F90546BB
:100E500000BFFFF73DFB00BF0B480078401C0A496C
:100E6000087002F013F900BFFFF74CFB00BF2846E3
:100E7000FFF782F900BF00BF0020208000BFD1E74C
:100E80004801002050010020A001002070B5044658
:100E9000002523480078002803DD46F665502080B1
:100EA00070BD20480078012803D045F68960208075
:100EB000F6E71D48007818B946F664502080EFE741
:100EC00000BF00BFFFF754F9054600BFFFF700FB66
:100ED00000BF15480078401E134908700846007886
:100EE00000280CDD00BFFFF70DFB00BF2846FFF711
:100EF00043F900BF00BF46F663502080D0E702F000
:100F0000D3F800BFFFF7FEFA00BF2846FFF734F919
:100F100000BF00BFFFF728FF0020208000BFBFE711
:100F20004801002050010020A001002010B5044617
:100F300012480078E8B901F0B1FE1149087008467E
:100F40000078104908700E48007800EB40000E4908
:100F500051F820000D490860084600680C490860F7
:100F6000012006490870FFF715F943F69920208003
:100F700002E045F68A60208010BD0000500100208C
:100F80008701002086010020F8360020FC010020A7
:100F9000F80100202DE9F04107464FF0000800203D
:100FA0002F4908602F4908802F4908602F490860A1
:100FB0002F4908602F4908602F4908602F480468AE
:100FC00028E000BF00BFFFF7D3F8804600BFFFF75F
:100FD0007FFA00BF00207834206460642060606382
:100FE0006061E074002121626162A162E162FFF749
:100FF000B3FAE061783C04F164060020B081D4F8D3
:10100000C44000BFFFF77EFA00BF4046FFF7B4F8C8
:1010100000BF00BF002CD4D103F07CF803F0F6FA37
:101020001748056816E000BF00BFFFF7A1F880462B
:1010300000BFFFF74DFA00BF05F120060020B08188
:10104000AD6900BFFFF75EFA00BF4046FFF794F8B6
:1010500000BF00BF002DE6D100203880BDE8F08140
:10106000640100205E010020C4010020DC0100209A
:10107000E80100204C01002098010020D001002050
:101080008C01002010B50348006810B101480068C9
:10109000804710BD380100202DE9FF4F87B004467E
:1010A0009046DDE91BA5DDE91496179F002003900B
:1010B00095480078002805DD47F24A1028800BB0DB
:1010C000BDE8F08F1CB947F2AD102880F7E7B8F102
:1010D000000F03D147F24F102880F0E71EB946F603
:1010E0002C602880EBE789480068874203D246F6E7
:1010F0002D602880E3E71698B84203D346F62E60A9
:101100002880DCE7B9F1400F03D346F27320288032
:10111000D5E7B9F1000F06D17D48844203D046F2ED
:1011200073202880CBE7B9F13F0F06D1794884427C
:1011300003D046F273202880C1E7204602F024FB4A
:10114000002028800AF0010090B10AF0020078B176
:1011500005960020069008E000210598016005989A
:10116000001D05900698401C06900698B842F3D3DF
:10117000169806EB80000490CDE9007A324640468E
:10118000049B0A9900F086FB0590C4F828800A9811
:10119000E0620898206284F83790059820600498EF
:1011A000A06019986065199818B95B480068A06537
:1011B00001E01998A0651A9860606662A763A4F8B8
:1011C0003CA04FF0000B08E0002104F17C0040F847
:1011D0002B100BF101001FFA80FBBBF1000FF3D0C5
:1011E00004F16400189901F06DFB204600F09EF8B0
:1011F00000BF00BF00BFFEF7BBFF039000BFFFF7BB
:1012000067F900BF45480078401C4449087008460B
:101210000078012801D101F039FF00BFFFF772F912
:1012200000BF0398FEF7A8FF00BF00BF00BF94F8FF
:10123000370001F053FD204601F08CFE204602F0FD
:1012400059FA37480088401C3549088035480078ED
:10125000012837D000BF00BF00BFFEF789FF039011
:1012600000BFFFF735F900BF2C480078401E2B491E
:10127000087008460078D0B901F016FF2A480088A7
:1012800000280BDD00BFFFF73DF900BF0398FEF714
:1012900073FF00BF00BF01F0CBFE11E000BFFFF7FE
:1012A00031F900BF0398FEF767FF00BF08E000BFF9
:1012B000FFF728F900BF0398FEF75EFF00BF00BFED
:1012C00000BFFCE600BF00BF00BFFEF751FF039068
:1012D00000BFFFF7FDF800BF10480078401E0F491F
:1012E00008700846007808B901F0DEFE00BFFFF77D
:1012F00009F900BF0398FEF73FFF00BF00BF00BF22
:10130000FFF732FD00BFDAE648010020A8670008B9
:101310002836002058350020A4010020A00100201C
:10132000D4010020500100205C01002010B50446CB
:101330000348006818B1204601490968884710BD74
:101340002801002070B504460D4600267848007834
:10135000002803DD47F24E10288070BD7548844296
:1013600003D147F24C102880F7E77348844203D139
:1013700047F24D102880F0E79CB900BF00BFFEF790
:10138000F7FE064600BFFFF7A3F800BF6B480468EE
:1013900000BFFFF7B7F800BF3046FEF7EDFE00BF15
:1013A00000BF00BF00BF00BFFEF7E2FE064600BF61
:1013B000FFF78EF800BF62480078401C6049087053
:1013C00008460078012801D101F060FE00BFFFF758
:1013D00099F800BF3046FEF7CFFE00BF00BF00BF48
:1013E00094F8360008282DD2DFE800F004090E102A
:1013F000080A0F11204601F0EDFD5EE05DE000BF40
:10140000204602F06BFE58E000BF00BF00BF204640
:1014100002F064FE94F83400082810D2DFE800F0EF
:1014200004070508090A0B0600BF00BF08E000BF5B
:1014300000BF00BF00BF204601F081FB00E000BFFD
:1014400000BF3AE000BF00BF00BFFEF791FE0646B6
:1014500000BFFFF73DF800BF39480078401E38490B
:10146000087008460078D0B901F01EFE35480088A3
:1014700000280BDD00BFFFF745F800BF3046FEF740
:101480007BFE00BF00BF01F0D3FD11E000BFFFF7FE
:1014900039F800BF3046FEF76FFE00BF08E000BF1E
:1014A000FFF730F800BF3046FEF766FE00BF00BF12
:1014B00000BF46F62A6028804FE700BF04F16400B1
:1014C00001F0DEF9204600F041F8204602F02AF94A
:1014D0001D480088401E1C490880204602F054F92F
:1014E000FF2084F8360000BF00BF00BFFEF740FEBB
:1014F000064600BFFEF7ECFF00BF11480078401E13
:101500000F4908700846007808B901F0CDFD00BF0A
:10151000FEF7F8FF00BF3046FEF72EFE00BF00BF0B
:1015200000BFFFF721FC0020288000BF15E7000066
:10153000480100205835002028360020F8010020FE
:10154000A00100205C010020D401002010B5044659
:101550000348006818B1204601490968884710BD52
:101560002C01002010B504460348006818B120463D
:1015700001490968884710BD300100202DE9F04776
:101580000746884614461D464FF0000985480078F6
:10159000002805DD46F2AE1028800020BDE8F08767
:1015A0000CB10020206000BF00BFFEF7E1FD8146C6
:1015B00000BFFEF78DFF00BF7B480068406CB8B3EA
:1015C00079480068406C401E77490968486476484D
:1015D0000068466C1CB174480068006C2060FEF71F
:1015E000BBFF71490968096C401A6F490968C1F865
:1015F000A8006D480068D0F8A8006B490968D1F8C8
:10160000AC10884207D968480068D0F8A80066493D
:101610000968C1F8AC0000BFFEF774FF00BF484680
:10162000FEF7AAFD00BF00BF002028803046B5E7C6
:10163000FFE708F4004068B100BFFEF763FF00BF9A
:101640004846FEF799FD00BF00BF46F2B010288063
:101650000020A3E75548007800280DDD00BFFEF705
:1016600051FF00BF4846FEF787FD00BF00BF46F6AA
:1016700063502880002091E700BF4C480078401C50
:101680004A49087008460078012801D101F0FEFCA3
:1016900000BFFEF737FF00BF4846FEF76DFD00BFF5
:1016A00000BF00BF3B4607220021084601F08CF92D
:1016B00000BF00BF00BFFEF75BFD814600BFFEF725
:1016C00007FF00BF39480078401E384908700846B7
:1016D000007808B901F0E8FC00BFFEF713FF00BF77
:1016E0004846FEF749FD00BF00BF00BFFFF73CFBC7
:1016F00000BF00BFFEF73CFD814600BFFEF7E8FEDD
:1017000000BF2948006890F8350020B1012826D094
:10171000032834D12CE0FCB123480068006C206021
:10172000FEF71AFF20490968096C401A1E4909682A
:10173000C1F8A8001C480068D0F8A8001A49096838
:10174000D1F8AC10884207D917480068D0F8A80033
:1017500015490968C1F8AC000020288013E01CB1CD
:1017600011480068006C206046F2A91028800AE049
:101770000CB10020206047F2D920288003E046F613
:101780002B60288000BF00BF07480068466C00BF80
:10179000FEF7B8FE00BF4846FEF7EEFC00BF00BFF4
:1017A0003046FBE648010020F8010020A00100209F
:1017B0002DE9F04705460E4617461C464FF0000A35
:1017C00032480078002804DD47F258102080BDE838
:1017D000F0871EB946F2D5202080F8E71FB946F2FF
:1017E000D5202080F3E700BF00BFFEF7C1FC824692
:1017F00000BFFEF76DFE00BF0DB9254805682868DB
:1018000078B900BFFEF77EFE00BF5046FEF7B4FC7D
:1018100000BF00BF00203060386047F252102080C7
:10182000D5E795F83C0000F0010078B900BFFEF75D
:1018300069FE00BF5046FEF79FFC00BF00BF0020BE
:101840003060386047F254102080C0E700BFFEF7D8
:1018500059FE00BF5046FEF78FFC00BF00BF4FF09F
:101860000008D5F8249003E009F1040908F1010803
:10187000D9F800000028F7D0C6F80080A86BA0EBCC
:10188000080038600020208000BFA0E74801002049
:10189000F8010020F0B50446DDE9055602EB8500AD
:1018A0004FF0807C071F3846C7F800C0071F384636
:1018B0003C60DFF89CC0071F3846C7F800C04FF0F7
:1018C000123C071F3846C7F800C04FF0033C071F03
:1018D0003846C7F800C04FF0023C071F3846C7F82B
:1018E00000C0071F38463B60071F384639604FF07D
:1018F000113C071F3846C7F800C04FF0103C071FC7
:101900003846C7F800C04FF0093C071F3846C7F8F3
:1019100000C04FF0083C071F3846C7F800C04FF022
:10192000073C071F3846C7F800C04FF0063C071FAA
:101930003846C7F800C04FF0053C071F3846C7F8C7
:1019400000C04FF0043C071F3846C7F800C0F0BD88
:10195000E13A000870B52648006810B124480068D4
:101960008047FEF7F9FD04462248006822490968CD
:10197000884219D01F480068D0F89400201A1D49E9
:101980000968C1F890001B48006850F8983F41680A
:1019900018480068D0F89000181841F10001154A65
:1019A000126842F8980F516013480068C0F89440DC
:1019B000FEF762FD05460F480068D0F8B800A8425F
:1019C00003D20C480068C0F8B8500A480068D0F844
:1019D000BC000A490968884205D2084800680549E0
:1019E0000968C1F8BC0000200449086070BD00000F
:1019F0003C010020F8010020FC0100209C01002097
:101A00002DE9F04105460E46144600274D48007862
:101A1000002804DD47F275202080BDE8F0814A48A7
:101A20000078002803DD46F663502080F5E736B1E4
:101A3000022E05D0042E0AD0082E09D101E000BFE5
:101A400000BF1DB947F27E202080E6E704E003E0F6
:101A500045F625602080E0E700BF00BF00BF00BF63
:101A6000FEF786FB074600BFFEF732FD00BF364893
:101A70000078401C3449087008460078012801D1DC
:101A800001F004FB00BFFEF73DFD00BF3846FEF746
:101A900073FB00BF00BF00BF01202C49096881F81B
:101AA00036002346324629462848006802F038FAB4
:101AB0002088F0B100BF00BF00BFFEF759FB07460A
:101AC00000BFFEF705FD00BF1F480078401E1E49FD
:101AD00008700846007808B901F0E6FA00BFFEF782
:101AE00011FD00BF3846FEF747FB00BF00BF00BF37
:101AF00093E71648006801F06DFA00BF00BF00BF11
:101B0000FEF736FB074600BFFEF7E2FC00BF0E48BB
:101B10000078401E0C4908700846007808B901F0AA
:101B2000C3FA00BFFEF7EEFC00BF3846FEF724FB09
:101B300000BF00BF00BFFFF717F90020208000BFE3
:101B40006BE7000048010020A0010020F801002000
:101B50002DE9FF5F05460E4617469846DDE90EA4BF
:101B60000020009081480078002804DD47F27520AD
:101B70002080BDE8FF9F7E480078002803DD46F600
:101B800063502080F5E70AF00E0BBBF1000F09D07F
:101B9000BBF1020F07D0BBF1040F10D0BBF1080F4F
:101BA0000ED101E000BF00BFB8F1000F06D12FB980
:101BB00026B91DB947F27E202080DAE704E003E071
:101BC00045F625602080D4E700BF2AF01E0008B14A
:101BD000012000E0002003900398012803D145F67E
:101BE00025602080C5E7CAF3001002900298C0B9B2
:101BF000B8F57A7F03D347F27B202080B9E73B2FEB
:101C000003DD47F27A202080B3E73B2E03DD47F265
:101C100079202080ADE7632D12DD47F27820208007
:101C2000A7E742F20F70864203DD47F27920208059
:101C30009FE7B5F57A7F03DB47F27820208098E7AD
:101C40004C48D0F800904FF4FA70B0FBF9F04044E3
:101C500000FB09F04FF47A71B0FBF1F14FF46160D1
:101C60006843C6EB061200EB8200384400FB091003
:101C700001900198002873D000BF00BF00BFFEF79D
:101C800077FA009000BFFEF723FC00BF38480078C9
:101C9000401C3749087008460078012801D101F03E
:101CA000F5F900BFFEF72EFC00BF0098FEF764FABE
:101CB00000BF00BF00BF01202F49096881F836002E
:101CC00023465A462C480199006802F029F92088D9
:101CD000F0B100BF00BF00BFFEF74AFA009000BF9E
:101CE000FEF7F6FB00BF22480078401E204908702E
:101CF0000846007808B901F0D7F900BFFEF702FCEA
:101D000000BF0098FEF738FA00BF00BF00BF30E701
:101D10001948006801F05EF900BF00BF00BFFEF780
:101D200027FA009000BFFEF7D3FB00BF10480078F1
:101D3000401E0F4908700846007808B901F0B4F950
:101D400000BFFEF7DFFB00BF0098FEF715FA00BFEB
:101D500000BF00BFFFF708F80020208003E0FFE786
:101D600047F27E20208000BF03E7000048010020EA
:101D7000A0010020AC670008F801002010B586B073
:101D800000F01EF8FEF7E8FB044605A800210091CC
:101D9000CDE9011403900748007800EB4000064AA3
:101DA00002EB800100231A46044800F0F7FA06B05F
:101DB00010BD000086010020F83600205449434B36
:101DC00010B50348006810B101480068804710BD95
:101DD0004001002010B5002400BF00BFFEF7C8F985
:101DE000044600BFFEF774FB00BF09480078401CA2
:101DF0000749087000BFFEF785FB00BF2046FEF7CD
:101E0000BBF900BF00BFFFF7B9FFFEF73BFF10BDF6
:101E10004801002001464A1E4FF0E0235A61084A5B
:101E2000106820F07F4000BF10601A46126942F02F
:101E300005021A611A46126942F002021A617047DD
:101E400020ED00E024482548254826482648274814
:101E5000274828482848294829482A482A482B48FA
:101E60002B482C482C482D482D482E482E482F48CA
:101E70002F4830483048314831483248324833489A
:101E8000334834483448354835483648364837486A
:101E9000374838483848394839483A483A483B483A
:101EA0003B483C483C483D483D483E483E483F480A
:101EB0003F484048404841484148424842484348DA
:101EC00043484448444845484548464846484748AA
:101ED000474800BF70470000F067000858690008D5
:101EE000F2670008F3670008F4670008F867000865
:101EF000FC670008F96700082468000825680008E6
:101F000026680008286800082A6800082C6800086D
:101F10002E68000830680008506800085268000801
:101F20005468000856680008586800085A68000895
:101F30005C68000888680008896800088A680008EA
:101F40008C6800088E6800088F6800089068000898
:101F5000926800089468000896680008986800086D
:101F60009A6800089C680008CC680008CD680008E2
:101F7000CE680008CF680008D0680008D268000862
:101F8000D4680008FC680008FD680008FE680008C6
:101F9000FF68000800690008026900080469000879
:101FA00008690008096900080A6900080B69000847
:101FB0000C6900080D6900080E6900080F69000827
:101FC0001069000812690008136900081469000804
:101FD0001669000818690008196900081C690008DA
:101FE00050690008516900085269000854690008E6
:101FF000566900080021034A1160034A11800180DC
:1020000070470000680100206C0100202DE9F04FAE
:1020100085B00446894692469B46DDF8388000200C
:10202000009000BF00BFFEF7A3F8009000BFFEF7CE
:102030004FFA00BFBAF1000F0AD0BAF1010F0DD06C
:10204000BAF5004F05D06FF40040504460B906E087
:1020500000BF206A40EA0900206216E000BF206A43
:1020600020EA0900206210E000BFFEF74BFA00BF33
:102070000098FEF781F800BF00BF45F62560A8F87C
:102080000000002005B0BDE8F08F00BFC4F824B008
:1020900004F1080001900198008968B900BFFEF7BB
:1020A00031FA00BF0098FEF767F800BF00BF0020BC
:1020B000A8F80000206AE5E700BF71480078401CDE
:1020C0006F49087008460078012801D100F0DEFF52
:1020D00000BFFEF717FA00BF0098FEF74DF800BFEB
:1020E00000BF00BF01980768BD6889E0786802906A
:1020F00095F8880000F00F0003900398012821D084
:1021000002282ED0042802D0082836D10EE0206AFA
:10211000D5F8801000EA0106D5F88000B04204D15D
:102120005A463146284600F0AFF863E0206AD5F8F9
:10213000801000EA010626B15A463146284600F0D2
:10214000A3F857E0D5F88000216A20EA0106D5F807
:102150008000B04204D15A463146284600F094F837
:1021600048E0D5F88000216A20EA010626B15A46E7
:102170003146284600F088F83CE000BF00BF00BFB1
:10218000FDF7F6FF009000BFFEF7A2F900BF3C4844
:102190000078401E3A49087008460078D0B900F02F
:1021A00083FF3848008800280BDD00BFFEF7AAF93E
:1021B00000BF0098FDF7E0FF00BF00BF00F038FF50
:1021C00011E000BFFEF79EF900BF0098FDF7D4FFB5
:1021D00000BF08E000BFFEF795F900BF0098FDF7CB
:1021E000CBFF00BF00BF00BF43F6FF20A8F80000F0
:1021F000002047E700BF029F0FB1BD6800E0002547
:10220000002D7FF473AF00BF00BF00BFFDF7B0FF2C
:10221000009000BFFEF75CF900BF19480078401E2F
:10222000174908700846007808B900F03DFF00BF64
:10223000FEF768F900BF0098FDF79EFF00BF00BFE2
:1022400000BF0AF4004008B9FEF78EFD00BF00BFD2
:10225000FDF78EFF009000BFFEF73AF900BF206A3D
:10226000049000BFFEF74EF900BF0098FDF784FF11
:1022700000BF00BF0020A8F80000049802E700009B
:10228000A00100205C01002070B504460E461546F2
:1022900034342665002060702070E560A078343CFE
:1022A000082816D2DFE800F0040508090706101117
:1022B00000BF00BF00BF0DE000BF204601F002FCE0
:1022C000002084F8360005E000BF042084F83600C2
:1022D00000E000BF00BF204600F031FC70BD0000F0
:1022E000002400BF1DE000BF00BFFDF741FF044612
:1022F00000BFFEF7EDF800BF0A480068401C09491E
:10230000086009480068401C0749086000BFFEF7E4
:10231000F9F800BF2046FDF72FFF00BF00BFFEF712
:10232000E9FBE0E744010020B401002010B58AB0C9
:10233000044600200E490860032000210591CDE9E4
:102340000704069108460B4909680B4A12680B4BB3
:102350001B68CDE90132CDE903103F200023084A74
:1023600008A100900C48FEF797FE0AB010BD0000CF
:102370004401002054670008506700084C670008BB
:10238000E122000875432F4F532D494949204964E4
:102390006C65205461736B00583500202DE9F84FAF
:1023A00004460D4616461F46DDE90BABDDF82890C6
:1023B000DDF834800020009000BF00BFFDF7D8FE9C
:1023C000009000BFFEF784F800BF2B4800882B491F
:1023D000098888423BDA28480088401C2649088042
:1023E000274800880988884203DA2348008824495E
:1023F00008802448006804602248006885602148FD
:102400000068C6601F48006807821E480068C0F860
:1024100014901C480068A0F818A01A480068C0F87A
:102420001CB0184800684068164908600120164929
:102430000881164808604860002000F04FFC1448EE
:102440000078144908700020A8F8000008E012483D
:102450000088401C1049088044F25360A8F800002E
:1024600000BFFEF74FF800BF0098FDF785FE00BFE4
:1024700000BFBDE8F88F00005C0100206067000825
:102480005E01002054010020F8360020283600208C
:102490008601002088010020600100202DE9FE4F08
:1024A0004FF0000B00BF00BFFDF762FE834600BF88
:1024B000FEF70EF800BF49480068D0F80090474882
:1024C0000068866845480068C76844480068B0F8F6
:1024D00010A042480068D0F8148040480068058B7E
:1024E0003E480068C4693D48006840683B49086050
:1024F00000BFFEF707F800BF5846FDF73DFE00BFDE
:1025000000BF3749A9EB010089452DD00ADC3548C9
:10251000484410B33449084460B1344908440028A1
:1025200058D12BE03249084478B332490844002896
:1025300050D108E002A823462A4641460090304682
:10254000FFF764FD47E002A82B4652463946CDE925
:102550000040304600F0F2FB3DE002AB2246294647
:10256000304600F041FE36E002A82B46524639467E
:10257000CDE90040304601F06FF92CE002AB224675
:102580002946304601F0B8FA25E0FFE71A490978F4
:1025900001EB4101194A02EB810000F0A3FD02ABFF
:1025A00022460021164801F0A7FA16480068401E8E
:1025B000144908600846006858B913480068086064
:1025C000FDF7CAFF044602AB224600210F4801F086
:1025D00093FA00E000BF00BFBDE8FE8F5801002065
:1025E000544D5347ADBAB2BE0DF90BFAF2F8F7FFEE
:1025F000000410FC03F4FDF588010020F8360020EB
:10260000C83A0020F4010020F0010020983B00208F
:10261000002700BF48E0002644E024480088E0B9D5
:1026200000BF00BFFDF7A4FD074600BFFDF750FF48
:1026300000BF00201E4908810860486000F060FB70
:1026400000BFFDF75FFF00BF3846FDF795FD00BFF7
:1026500000BFFEF789FB012624E0FDF77DFF05465C
:10266000FFF71CFFFDF778FF441B12480068844207
:1026700001D91048046000BF00BFFDF779FD07468F
:1026800000BFFDF725FF00BF08480088401E07492E
:10269000088000BFFDF736FF00BF3846FDF76CFD30
:1026A00000BF00BF002EB8D0B5E700005C010020DD
:1026B000F836002064010020F0B589B005460020FE
:1026C000314908803148006820B944F252602880BE
:1026D00009B0F0BD2E480088022803DA44F25460A5
:1026E0002880F5E700202B49086028480468264622
:1026F000203600270CE0284820600020A060E06021
:10270000208260612083666020342036781C87B286
:102710001F4800888742EEDB203C1C480668666044
:102720001E4806601E48066000201E4908801E499B
:1027300008801E48006818B946F62C602880C7E754
:102740001B4800681B490968884203D246F62D6081
:102750002880BDE7032000210591CDE907050691FA
:1027600013480068144A1268104B1B68CDE9030136
:10277000CDE9013200910B46104A11A11748FEF72E
:102780008BFC00BFA4E70000600100205C6700082C
:1027900060670008640100204E4F4E455401002040
:1027A000580100205C0100205E01002068670008DD
:1027B00070670008A86700086C6700081126000809
:1027C00075432F4F532D4949492049535220517584
:1027D000657565205461736B000000002836002089
:1027E0000021034A1160034A1180018070470000F4
:1027F000700100207401002070B502460B4610469F
:10280000114610315E1EB5B2002408E001600026BA
:1028100046600681C66010301031661CB4B2AC420E
:10282000F4DB0026066046600681C66070BD0000CD
:1028300010B504460F48006818B945F21E70208094
:1028400010BD0D48008818B945F21D702080F7E7CB
:102850000948018807480068FFF7CEFF054800686F
:10286000064908600448008888800020C8802080CD
:1028700000BFE5E78C670008846700087801002046
:1028800010B5014648894B89002B17DD0A680C4BAF
:102890001B6813600A4C4B6823602346DB884C8915
:1028A0001B1B074CE38023469B884C892344044C24
:1028B000A38000234B818B810B604B6010BD000017
:1028C0007801002001810022428182810260426001
:1028D000704700002DE9F0410D46DDE90674B0F8BF
:1028E0000AC0B0F80880C44505DB46F2935CA4F842
:1028F00000C0BDE8F081DFF8B4C0BCF804C0BCF192
:10290000000F04D145F21D7CA4F800C0F1E7DFF808
:102910009CC0DCF80010DFF89480D1F800C0C8F843
:1029200000C0C446BCF804C0ACF1010CA8F804C057
:10293000C446BCF806C00CF1010CA8F806C0B0F8FB
:102940000AC0BCF1000F06D1016041604FF0010CDC
:10295000A0F80AC017E003F0100CBCF1000F07D17B
:10296000066831604FF0000CC1F800C0016004E05F
:10297000D0F804C0C1F800C04160B0F80AC00CF142
:10298000010CA0F80AC0B0F80AC0B0F80C80C44529
:1029900003DDB0F80AC0A0F80CC04D600A81CF601A
:1029A0004FF0000CA4F800C000BFA2E7780100209F
:1029B0000021034A1160034A118001807047000022
:1029C00080010020840100202DE9F04105460C46DD
:1029D00016461F461548006880F8346000201349E9
:1029E000096881F8350039461048006800F066FE35
:1029F0006CB104F10808EC60012229460B4800681C
:102A000000F016F82946404600F066F806E000207F
:102A100006490968C88705490968086303480168C9
:102A2000204600F019F8BDE8F0810000F801002010
:102A300010B5C287016300230AE000244C600C60DB
:102A40000C614C610C83CC61886020315C1CA3B2AA
:102A50009342F2DB10BD000030B548B14568C1F8C3
:102A6000C85000F10804226893681D6AC56113E02C
:102A700091F83450022D02D0072D08D103E007A5AC
:102A8000C1F8C85007E007A5C1F8C85003E008A581
:102A9000C1F8C85000BF00BF30BD00005461736B67
:102AA000205100005461736B2053656D00000000DD
:102AB0002000000030B507A5C1F8C85000F1080497
:102AC00022681AB193681D6AC56101E001A5C5615C
:102AD00030BD000020000000F0B58E6896F8375039
:102AE00007893FB90127078100274F600F60016008
:102AF000416023E007897F1C0781026806E0946833
:102B000094F83770AF4200DD02E05268002AF6D137
:102B100000BF32B900274F6043680B6059604160C5
:102B20000CE017682FB9116000270F604A60016040
:102B300004E013680B604A6059601160F0BD2DE934
:102B4000F0410446256BE68F0AE0D5F80C8008F1C9
:102B500008072946384600F00AF82035701E86B26C
:102B6000002EF2DC0020E0872063BDE8F08110B584
:102B70000489012C03D100240460446011E00C6836
:102B800024B94A680024146002600AE04C6824B941
:102B90000B6800245C60436003E00B684A685A607D
:102BA00013600489641E048100244C600C6010BD15
:102BB0002DE9F84306460C4617469846089D94F8BA
:102BC0003600082850D2DFE800F00405080906079F
:102BD0002B2C00BF00BF00BF47E000BF94F83400BB
:102BE000032807D143463A4621463046009500F077
:102BF0003FF803E0E765A4F86080256436B120461D
:102C0000FFF79DFF21463046FFF754FF204600F0B6
:102C100059FF00203434A070607004F8340924E0B7
:102C200000BF94F83400032807D143463A462146B2
:102C30003046009500F01CF803E0E765A4F86080DA
:102C40002564204601F04AFA36B12046FFF777FFA7
:102C500021463046FFF72EFF04203434A0700020B8
:102C6000607004F8340900E000BF00BFBDE8F883DD
:102C7000F0B50446059E086BCD8F0AE0C768A742F1
:102C800004D1046142610383C66104E020306F1EF9
:102C9000BDB2002DF2DC00BFF0BD000070B5002514
:102CA000074C03E005F12000C5B2241D2068002870
:102CB000F8D02068FDF763FA2844C5B2284670BDF5
:102CC00020010020002004E00021034A42F82010E7
:102CD000401C0228F8D370472001002030B542097B
:102CE00000F01F030121C3F11F04A140034C54F85D
:102CF00022400C43014D45F8224030BD2001002008
:102D000030B5420900F01F030121C3F11F04A140A7
:102D1000034C54F822408C43014D45F8224030BD0D
:102D2000200100200021034A1160034A1180018024
:102D3000704700008C010020900100202DE9F04F29
:102D400085B007468A4693461C460020029000BF85
:102D500000BF00BFFDF70CFA029000BFFDF7B8FB03
:102D600000BF56480078401C544908700846007857
:102D7000012801D100F08AF900BFFDF7C3FB00BFB5
:102D80000298FDF7F9F900BF00BF00BF07F1080680
:102D9000308900284CD104F0100010B94FF0000821
:102DA00001E04FF01008DDE90E0143465A46CDE937
:102DB0000001514607F12000FFF78CFD00BF00BF66
:102DC00000BFFDF7D5F9029000BFFDF781FB00BF02
:102DD0003A480078401E3949087008460078D0B952
:102DE00000F062F93648008800280BDD00BFFDF7CF
:102DF00089FB00BF0298FDF7BFF900BF00BF00F0DC
:102E000017F911E000BFFDF77DFB00BF0298FDF749
:102E1000B3F900BF08E000BFFDF774FB00BF0298E4
:102E2000FDF7AAF900BF00BF00BF05B0BDE8F08FF5
:102E300004F4007008B1358900E00125D6F800904F
:102E400011E0D9F808000390D9F8040004900E9816
:102E50005B465246009038460399FFF7A9FEDDF81D
:102E60001090681E85B2002DEBD100BF00BF00BFDF
:102E7000FDF77EF9029000BFFDF72AFB00BF0F4867
:102E80000078401E0D4908700846007808B900F027
:102E90000BF900BFFDF736FB00BF0298FDF76CF998
:102EA00000BF00BF00BF04F4004008B9FDF75CFF9D
:102EB00000210F98018000BFB7E70000A0010020AB
:102EC0005C01002000210AE001EB4102054B03EB0D
:102ED000820000220281026042604A1CD1B2402975
:102EE000F2D37047F836002010B5044694F8370046
:102EF000FFF7F4FE94F8370005490978884203D1BA
:102F0000204600F027F802E0204600F003F810BD4C
:102F10008601002010B590F8373003EB43030C4CCA
:102F200004EB83010B893BB901230B810023C360B0
:102F300003610860486009E00B895B1C0B810B682A
:102F4000C360002303610A681061086010BD0000BF
:102F5000F836002010B590F8373003EB43030B4CE4
:102F600004EB83010B893BB901230B810023C36070
:102F700003610860486008E00B895B1C0B8100233B
:102F8000C3604A680261D060486010BDF836002016
:102F900010B501460C8924B1012C03D0022C0CD1B0
:102FA00001E000BF14E008684A6802610024C460C0
:102FB0001461D0600A6048600AE008684A68C36823
:102FC00000241C61C4600261D0600B60486000BFD7
:102FD00000BF10BD2DE9F041054695F8370000EB24
:102FE0004000124901EB80042F69EE6887B946B9A9
:102FF000002020812060606095F83700FFF780FE98
:103000000EE02089401E208100203061266007E00C
:103010002089401E2081FE600EB9676000E03761A4
:1030200000202861E860BDE8F0810000F83600204B
:1030300010B5002400BFFDF79BF8044600BF002038
:103040000D4908700D480E49086008460068D0F820
:103050008C00401C0968C1F88C000A480068401CBC
:10306000084908604FF080500749086000BF2046BB
:10307000FDF782F800BF10BD870100202836002030
:10308000FC010020CC01002004ED00E010B5044854
:103090000078012803D1FDF75FFA0249086010BDEE
:1030A000A00100209401002010B50A48007880B9E2
:1030B000FDF752FA08490968441A08480068844232
:1030C00001D90648046006480068844201D90448D2
:1030D000046010BDA0010020940100209801002090
:1030E0009C01002070B5054600263548007801286F
:1030F00000D070BD00BF00BFFDF73AF8064600BF24
:10310000FDF7E6F900BF2C684CB900BFFDF7FAF9EE
:1031100000BF3046FDF730F800BF00BFE9E729489F
:10312000844209D100BFFDF7EDF900BF3046FDF73D
:1031300023F800BF00BFDCE7A06D10B1A06D401EFA
:10314000A065A06D48B100BFFDF7DCF900BF3046B7
:10315000FDF712F800BF00BFCBE72889022809DA83
:1031600000BFFDF7CFF900BF3046FDF705F800BFFF
:1031700000BFBEE714480078002809DD00BFFDF756
:10318000C1F900BF3046FCF7F7FF00BF00BFB0E752
:103190002846FFF7FDFE2C68606D18B90B480068E3
:1031A000A06501E0606DA06500BFFDF7ABF900BF51
:1031B0003046FCF7E1FF00BF00BF00BF99E7000009
:1031C000A801002058350020A0010020A401002003
:1031D0000021034A1160034A1180018070470000FA
:1031E000AC010020B00100202DE9FF5F04468846B5
:1031F00091461D460020019000BF00BFFCF7B8FFBC
:10320000019000BFFDF764F900BF04F10807388999
:10321000002857D10420012804D0022816D0042801
:103220003AD127E0206AFF280FD100BFFDF76AF9E5
:1032300000BF0198FCF7A0FF00BF00BF46F6C550D5
:103240002880002004B0BDE8F09F26E04FF6FF7113
:10325000206A88420DD100BFFDF754F900BF0198E4
:10326000FCF78AFF00BF00BF46F6C550288000204B
:10327000E8E712E0206A401C68B900BFFDF742F998
:1032800000BF0198FCF778FF00BF00BF46F6C550AD
:1032900028800020D6E700E000BF00BF206A401C65
:1032A0002062D4F820A0C4F8249000BFFDF72AF9CA
:1032B00000BF0198FCF760FF00BF00BF002028801E
:1032C0005046BFE700BF2D480078401C2B490870CE
:1032D00008460078012801D1FFF7D8FE00BFFDF7AE
:1032E00011F900BF0198FCF747FF00BF00BF00BF06
:1032F00008F4007008B13E8900E00126D7F800B05C
:1033000011E0DBF808000290DBF8040003900023D2
:103310001A46CDF8009020460299FFF749FCDDF8E7
:103320000CB0701E86B2002EEBD1D4F820A000BFE6
:1033300000BF00BFFCF71CFF019000BFFDF7C8F8FD
:1033400000BF0E480078401E0C49087008460078FF
:1033500008B9FFF7A9FE00BFFDF7D4F800BF019838
:10336000FCF70AFF00BF00BF00BF08F4004008B927
:10337000FDF7FAFC00202880504663E7A0010020FA
:103380001CB50020009000BF06E08C490968480089
:1033900001AA0021FEF734FB894800780128F4D106
:1033A00001A8FDF7F7FD00278648006883490968F2
:1033B000884205D98348006880490968B0FBF1F765
:1033C00027B9804800680A21B0FBF1F7F4E0FDF767
:1033D000C3F88246FDF766F87B49086000BF00BF6E
:1033E000FCF7C6FE009000BFFDF772F800BF7748FB
:1033F00000687749086000207449086000BFFDF745
:1034000081F800BF0098FCF7B7FE00BF00BF71480D
:1034100000686F490968884213D96E48006860B136
:103420006B480068642148436A490968B0FBF1F0C1
:10343000C0F164006849087006E0642066490870BD
:1034400002E0642064490870FDF71CFE00252E464A
:103450006248046865E000BF00BF00BFFCF788FE5B
:10346000009000BFFDF734F800BF5D480078401CB5
:103470005B49087008460078012801D1FFF706FE75
:1034800000BFFDF73FF800BF0098FCF775FE00BFD6
:1034900000BF00BF54F8980F6168C4E90201002121
:1034A00021606160983C00BF00BF00BFFCF760FE78
:1034B000009000BFFDF70CF800BF49480078401E9F
:1034C0004749087008460078D0B9FFF7EDFD454838
:1034D000008800280BDD00BFFDF714F800BF00983E
:1034E000FCF74AFE00BF00BFFFF7A2FD11E000BFDE
:1034F000FDF708F800BF0098FCF73EFE00BF08E0AB
:1035000000BFFCF7FFFF00BF0098FCF735FE00BFCF
:1035100000BF00BF54F8A01F60684D194641606AA3
:103520000446002C97D16422002328463146FCF73C
:1035300073FE05460E462948046821E0002185EA0D
:103540000100714008430ED02A463346D4E928B121
:103550005846FCF761FE00F0FF09B9F1640F04D989
:103560004FF0640901E04FF0000984F88B9001AB43
:1035700004F1B002111D2046FEF71AF9D4F8C44038
:10358000002CDBD118480078012805D1002016490D
:10359000087001A8FDF7FEFCFCF7DEFFA0EB0A08AF
:1035A00012480068804502D91048C0F8008001AA7E
:1035B00000213846FEF724FA09E700009467000866
:1035C000C0010020AC6700084C010020B4010020BD
:1035D000BC010020B8010020B2010020D001002071
:1035E000A00100205C010020C8010020C4010020CF
:1035F00010B58AB0044600201F4908601F490860C2
:103600001F4908601F4908701F4908701F4800685B
:1036100020B946F62C6020800AB010BD1C48006816
:103620001C490968884203D246F62D602080F3E7E2
:10363000194800783F2803D346F273202080EBE737
:10364000032000210591CDE90704069108461049A1
:103650000968124A12680D4B1B68CDE90132CDE9A9
:1036600003100D48007800230D4A0EA10090124867
:10367000FDF712FD00BFCFE7B4010020BC01002020
:10368000B8010020C0010020C80100209867000890
:10369000A0670008A8670008906700089C670008FA
:1036A0008133000875432F4F532D494949205374E6
:1036B0006174205461736B00F839002038B50446FA
:1036C0000D4685B16B4602222946204600F028FCB3
:1036D000BDF8000018B9032084F8360006E0022087
:1036E00084F8360002E0022084F836002046FFF716
:1036F00071FC38BD0021C0F8C0100949096819B92A
:103700000021C0F8C41007E005490968C0F8C410DA
:1037100003490968C1F8C00001490860704700000A
:10372000D0010020D0F8C020D0F8C4104AB90D4B09
:10373000196011B10023C1F8C0300023C0F8C430B3
:103740000FE029B90023C2F8C430C0F8C03008E047
:10375000C2F8C410C1F8C0200023C0F8C430C0F8BB
:10376000C0307047D00100200021044A1160044A93
:103770001180044A1160018070470000D0010020D0
:10378000D4010020CC01002070B504460020206048
:10379000A0606060E06020616061A061E0612BA0DA
:1037A000206200206062A062E0622063E087206403
:1037B000E065A4F86000002104F16400FFF782F8DE
:1037C000002044F8740F6060E060A0822061743CC7
:1037D000002506E0002104F17C0040F82510681C5B
:1037E000C5B2002DF6D00020343420616067A06798
:1037F000606084F85600C4F88000E06720814FF0D4
:10380000004060610020A061E0612062606284F895
:103810005700A065E065FCF79FFE0646266600217E
:103820006166A1660020C4F88400C4F88800207096
:103830006070A0704020E0700020C4F88C00C4F8D4
:10384000900004A0C4F89400343C70BD3F546173F0
:103850006B000000200000002DE9FC4704460F46E5
:1038600090469946DDE90A654FF0000A00BF00BFA7
:1038700000BFFCF77DFC824600BFFCF729FE00BFBD
:103880008D480078401C8C49087008460078012853
:1038900001D1FFF7FBFB00BFFCF734FE00BF504631
:1038A000FCF76AFC00BF00BF00BF0CB98348046886
:1038B0000020288094F8360008287CD2DFE800F049
:1038C0000405484906074A4B00BF00BF00BF4B46EE
:1038D0004246394604F16400CDE90065FEF7FAFF7F
:1038E00000BF00BF00BFFCF743FC824600BFFCF7EF
:1038F000EFFD00BF70480078401E6F490870084611
:103900000078D0B9FFF7D0FB6D48008800280BDDA8
:1039100000BFFCF7F7FD00BF5046FCF72DFC00BFD1
:1039200000BFFFF785FB11E000BFFCF7EBFD00BF18
:103930005046FCF721FC00BF08E000BFFCF7E2FDA9
:1039400000BF5046FCF718FC00BF00BF00BFAFE04F
:1039500000BF00BF00BF94F8340002282CD14346BA
:103960003A46214600200096FFF722F900BF00BF2B
:1039700000BFFCF7FDFB824600BFFCF7A9FD00BFBE
:103980004D480078401E4C4908700846007808B938
:10399000FFF78AFB00BFFCF7B5FD00BF5046FCF700
:1039A000EBFB00BF00BF00BF09F40040002843D17B
:1039B000FDF7DAF940E040E04B464246394604F173
:1039C0006400CDE90065FEF785FF00BF00BF00BFC2
:1039D000FCF7CEFB824600BFFCF77AFD00BF3648FD
:1039E0000078401E3449087008460078D0B9FFF7C7
:1039F0005BFB3348008800280BDD00BFFCF782FD2D
:103A000000BF5046FCF7B8FB00BF00BFFFF710FB3C
:103A100011E000BFFCF776FD00BF5046FCF7ACFBA1
:103A200000BF08E000BFFCF76DFD00BF5046FCF78B
:103A3000A3FB00BF00BF00BF3AE000BF00BF00BF54
:103A4000FCF796FB824600BFFCF742FD00BF1A4818
:103A50000078401E1849087008460078D0B9FFF772
:103A600023FB1748008800280BDD00BFFCF74AFD48
:103A700000BF5046FCF780FB00BF00BFFFF7D8FA3D
:103A800011E000BFFCF73EFD00BF5046FCF774FBA1
:103A900000BF08E000BFFCF735FD00BF5046FCF753
:103AA0006BFB00BF00BF00BF46F62A60288000BF46
:103AB00000BFBDE8FC870000A0010020F801002045
:103AC0005C01002010B50446204600F007FB94F886
:103AD000360000F0040010B92046FFF705FA10BDCB
:103AE00008B504480068FDF73DFD69460020FDF774
:103AF00029FC08BDF80100202DE9F843044688465A
:103B000017461D464FF0000900BF00BF00BFFCF77D
:103B10002FFB814600BFFCF7DBFC00BFF3480078B9
:103B2000401CF249087008460078012801D1FFF7CF
:103B3000ADFA00BFFCF7E6FC00BF4846FCF71CFBF3
:103B400000BF00BF00BF0CB9E9480468276400202B
:103B5000288094F8360008287AD2DFE800F00405BF
:103B6000FEFD0607FCFB00BF00BF00BF04200128CC
:103B700004D0022843D004286BD184E0606CFF2875
:103B80003CD100BF00BF00BFFCF7F2FA814600BF86
:103B9000FCF79EFC00BFD5480078401ED349087052
:103BA00008460078D0B9FFF77FFAD248008800288D
:103BB0000BDD00BFFCF7A6FC00BF4846FCF7DCFAB3
:103BC00000BF00BFFFF734FA11E000BFFCF79AFC1A
:103BD00000BF4846FCF7D0FA00BF08E000BFFCF782
:103BE00091FC00BF4846FCF7C7FA00BF00BF00BF0A
:103BF00046F6C55028800020BDE8F88385E04FF6E2
:103C0000FF71606C88423DD100BF00BF00BFFCF770
:103C1000AFFA814600BFFCF75BFC00BFB3480078F9
:103C2000401EB249087008460078E0B9FFF73CFA38
:103C3000B048008800280DDD00BFFCF763FC00BF22
:103C40004846FCF799FA00BF00BFFFF7F1F913E00F
:103C50000DE159E000BFFCF755FC00BF4846FCF7FA
:103C60008BFA00BF08E000BFFCF74CFC00BF4846E1
:103C7000FCF782FA00BF00BF00BF46F6C55028809F
:103C80000020B9E741E0606C401CD8BB00BF00BF1A
:103C900000BFFCF76DFA814600BFFCF719FC00BFBE
:103CA00092480078401E9149087008460078D0B9C3
:103CB000FFF7FAF98F48008800280BDD00BFFCF7FA
:103CC00021FC00BF4846FCF757FA00BF00BFFFF7D2
:103CD000AFF911E000BFFCF715FC00BF4846FCF748
:103CE0004BFA00BF08E000BFFCF70CFC00BF4846E1
:103CF000FCF742FA00BF00BF00BF46F6C55028805F
:103D0000002079E7FFE700E000BF00BF606C401CC7
:103D10006064666C00BF00BF00BFFCF729FA8146F3
:103D200000BFFCF7D5FB00BF70480078401E6F490C
:103D3000087008460078F8B9FFF7B6F96D480088B2
:103D4000002810DD00BFFCF7DDFB00BF4846FCF794
:103D500013FA03E01EE01CE01AE018E000BF00BF09
:103D6000FFF766F911E000BFFCF7CCFB00BF484647
:103D7000FCF702FA00BF08E000BFFCF7C3FB00BF7E
:103D80004846FCF7F9F900BF00BF00BFABE000BF39
:103D900000BF00BF94F8340007282BD100231A4637
:103DA000214618460097FEF703FF666C00BF00BF70
:103DB00000BFFCF7DDF9814600BFFCF789FB00BFBF
:103DC0004A480078401E494908700846007808B9FA
:103DD000FFF76AF900BFFCF795FB00BF4846FCF708
:103DE000CBF900BF00BF00BF08F4004098BBFCF750
:103DF000BBFF3BE0606C401C6064666C00BF00BFB2
:103E000000BFFCF7B5F9814600BFFCF761FB00BFBE
:103E100036480078401E3549087008460078D8B901
:103E2000FFF742F93348008800280BDD00BFFCF79C
:103E300069FB00BF4846FCF79FF900BF00BFFFF7D2
:103E4000F7F812E000BFFCF75DFB00BF4846FCF747
:103E500093F900BF09E009E000BFFCF753FB00BF86
:103E60004846FCF789F900BF00BF00BF3BE000BF38
:103E700000BF00BFFCF77CF9814600BFFCF728FBC0
:103E800000BF1A480078401E18490870084600789C
:103E9000D0B9FFF709F91748008800280BDD00BFEB
:103EA000FCF730FB00BF4846FCF766F900BF00BFD7
:103EB000FFF7BEF811E000BFFCF724FB00BF484647
:103EC000FCF75AF900BF08E000BFFCF71BFB00BF7E
:103ED0004846FCF751F900BF00BF00BF46F62A6014
:103EE0002880002600BF00BF304685E6A0010020E4
:103EF000F80100205C010020002108E0064A02EBE6
:103F0000C100002202608280C2804A1C91B2034A32
:103F100012889142F2DB704788320020C4670008A3
:103F20002DE9F04F0C4616461D46042E1ED1DFF833
:103F3000A091D9F80090A4EB0909A9F1010313F5A8
:103F4000803F0DD94FF00009C0F84C90C0F8509058
:103F5000C0F81C9047F27E29A5F80090BDE8F08FCC
:103F6000C46403F10109C0F850903FE084B3082E07
:103F700025D1D0F8489009EB0407DFF85491D9F81F
:103F80000090A7EB0909A9F10103A34201D2C7647C
:103F900006E0DFF83C91D9F80090A144C0F84C90BD
:103FA000DFF82CA1D0F84C90DAF800A0A9EB0A09B0
:103FB000C0F85090D0F84C90C0F8489016E0DFF868
:103FC0001091D9F80090A144C0F84C9004650DE020
:103FD000FFE74FF00009C0F84C90C0F85090C0F8CF
:103FE0001C9047F27E29A5F80090B7E7DFF8E4A01F
:103FF000BAF800A0D0F84C90B9FBFAFB0AFB1B9969
:104000001FFA89F8DFF8D09009EBC802B2F80490E3
:10401000B9F1000F0BD14FF00009C0F81490C0F8AF
:10402000189010604FF00109A2F804903EE011686A
:1040300034E0DFF89CA0D1F84C90DAF800A0A9EBAE
:104040000A09C1F85090D0F85090D1F850A0D1454D
:104050000ED9D1F81490B9F1000F01D049691DE0D3
:104060004FF00009C0F8149081614861002115E00B
:10407000D1F81890B9F1000F07D14FF00009C0F83E
:10408000189041618861106007E0D1F818C0C0F84D
:1040900018C04161CCF81400886100210029C8D102
:1040A000B2F8049009F10109A2F80490B2F8069060
:1040B000B2F804A0D14503DAB2F80490A2F8069051
:1040C000C2614FF00009A5F8009000BF46E700006C
:1040D000D8010020C46700088832002010B5C269EA
:1040E000BAB1002404651468844205D141691160A5
:1040F00039B100248C6104E0816943694B6103B1EB
:104100009961002444618461C461C4649488641E1C
:10411000948010BD002006E0054A02EBC001002299
:10412000CA80421C90B2034A12889042F4DB704766
:1041300088320020C46700082DE9F05F4FF0000BC3
:1041400000BF00BF00BFFCF713F8834600BFFCF7B9
:10415000BFF900BF7A480078401C794908700846CA
:104160000078012801D1FEF791FF00BFFCF7CAF9E2
:1041700000BF5846FCF700F800BF00BF00BFFCF7C7
:10418000EBF905466F480068401C6E490860084618
:1041900000686D490988B0FBF1F201FB12001FFABB
:1041A00080FA6A4800EBCA08D8F80040002782E08D
:1041B000002C7FD0D4F8149094F83600082875D2DB
:1041C000DFE800F00408051B063D075000BF00BFF4
:1041D00000BF6CE05B49E06C0968401A20655949F2
:1041E000E06C0968884206D1002084F83600204639
:1041F000FFF768FC00E0012759E05249E06C0968CC
:10420000401A20654F49E06C0968884215D10020AA
:10421000E065A4F86000FCF79FF920642046FEF7F3
:104220008EFC2046FFF74EFC00203434A0700320A3
:104230006070002004F8340900E0012737E04149AC
:10424000E06C0968401A20653E49E06C09688842C4
:1042500006D1042084F836002046FFF73FFF00E037
:10426000012724E03749E06C0968401A2065354988
:10427000E06C0968884217D10020E065A4F860006E
:10428000FCF76AF920642046FEF759FC2046FFF748
:1042900025FF04203434A07003206070002004F84F
:1042A000340902E006E001E0012700E000BF00BFA2
:1042B0004C4600E00127002F3FF47AAFFCF74CF9A1
:1042C000461B23480068864201D92148066000BF8A
:1042D00000BF00BFFBF74CFF834600BFFCF7F8F8B8
:1042E00000BF17480078401E15490870084600783E
:1042F000D0B9FEF7D9FE1748008800280BDD00BFB3
:10430000FCF700F900BF5846FBF736FF00BF00BFBF
:10431000FEF78EFE11E000BFFCF7F4F800BF584630
:10432000FBF72AFF00BF08E000BFFCF7EBF800BF77
:104330005846FBF721FF00BF00BF00BFBDE8F09F5C
:10434000A0010020D8010020C467000888320020A6
:10435000DC0100205C0100201CB500BF0EE001ABB9
:104360006A4600210846FDF709F9BDF8040028B99E
:1043700003480078012801D1FFF7DEFEEFE70000D7
:104380005001002010B58AB004460020144908608E
:1043900014490860FFF7B0FD134800783F2804D3A4
:1043A00046F2732020800AB010BD03200021059141
:1043B000CDE9070406910D4802680D4800680D4BD1
:1043C0001B68CDE90130CDE90321074800780023BF
:1043D000094A0AA100900E48FCF75EFE00BFE2E722
:1043E000D8010020DC010020B0670008BC6700088D
:1043F000B8670008B46700085943000875432F4F99
:10440000532D494949205469636B205461736B00F3
:10441000C83A002070B58AB00446002031490860CF
:104420003148006840B1314800682F490968B0FB45
:10443000F1F02F49086006E02C4800680A21B0FB23
:10444000F1F02B4908602A4800682A4908600020DA
:104450002949086029490860002508E0284800EB40
:10446000C5060020B080F0803060681C85B2254809
:1044700000888542F2DB2448006820B947F24630C4
:1044800020800AB070BD214800682149096888422F
:1044900003D247F246302080F3E71E4800783F28D9
:1044A00003D346F273202080EBE70320002105911F
:1044B000CDE907040691084614490968164A1268AE
:1044C000114B1B68CDE90132CDE90310114800788A
:1044D0000023124A12A100901748FCF7DDFD00BF2F
:1044E000CFE70000E0010020D0670008AC670008BB
:1044F000F0010020F4010020EC010020E801002080
:10450000F0340020E4670008D4670008DC67000886
:10451000A8670008CC670008D86700083146000883
:1045200075432F4F532D4949492054696D657220B9
:104530005461736B00000000983B0020F0B50C46FE
:10454000022680F82A60012C05D12D4F466A3F686B
:104550003E4486610CE0066A2EB9294F466A3F68E0
:104560003E44866104E0264F066A3F683E44866109
:10457000244F3F888669B6FBF7FC07FB1C66B5B283
:10458000214E06EBC502166836B900260661466163
:104590001060012696802CE0194F86693F68F61B53
:1045A000C661116820E0164F8E693F68F61BCE6128
:1045B000C669CF69BE4209D90E690EB1096913E017
:1045C000002606614161086100210DE04E692EB9A7
:1045D0000026466101614861106004E04B69436157
:1045E00001611861486100210029DCD19688761CA0
:1045F0009680D6889788BE4201DA9688D680F0BD2C
:10460000EC010020E4670008F0340020002006E000
:10461000054A02EBC0010022CA80421C90B2034A44
:1046200012889042F4DB7047F0340020E467000801
:104630001CB500BF53E001AB6A4600210846FCF7F9
:104640009DFF01A8FCF7E4FBFBF786FF0646244824
:104650000068401C22490860084600682149098812
:10466000B0FBF1F201FB12001FFA80FA1E4800EBCA
:10467000CA08D8F800404FF0000B21E0F4B1D4F89C
:1046800010901749A0690968884214D1204600F0AB
:104690002FF8208D022804D101212046FFF74EFF7C
:1046A00002E0032084F82A00A56815B12046E168DD
:1046B000A8474C4604E04FF0010B01E04FF0010B1E
:1046C000BBF1000FDAD0FBF747FF871B01A8FCF70F
:1046D000DDFB06480068874201D904480760AAE765
:1046E000EC010020E4670008F0340020E80100201D
:1046F000F0B5114E36888569B5FBF6F706FB175500
:10470000ACB20E4D05EBC4021568854205D10169B6
:10471000116039B100254D6104E0416903690B6105
:1047200003B15961012580F82A50002505614561D2
:1047300095886D1E9580F0BDE4670008F034002078
:1047400029B1064AD2690243044BDA6104E0034A04
:10475000D2698243014BDA617047000000100240C9
:1047600029B1064A12690243044B1A6104E0034A64
:1047700012698243014B1A61704700000010024029
:1047800029B1064A92690243044B9A6104E0034A44
:1047900092698243014B9A61704700000010024009
:1047A00030B500210022002400232D4D6D6805F056
:1047B0000C0121B1042905D0082923D105E0294D98
:1047C000056022E0274D05601FE0254D6D6805F46A
:1047D0007012234D6D6805F48034022505EB92427A
:1047E0001CB9214D554305600BE01D4D6D6805F466
:1047F00000351DB11C4D5543056002E0194D554370
:10480000056002E0174D056000BF00BF144D6D68E4
:1048100005F0F0010909154D6B5C0568DD40456048
:104820000F4D6D6805F4E061090A104D6B5C456839
:10483000DD4085600A4D6D6805F46051C90A0B4D75
:104840006B5C4568DD40C560054D6D6805F4404111
:10485000890B074D6B5CC568B5FBF3F5056130BD91
:104860000010024000127A0000093D000000002004
:104870001000002000B587B001210C20FFF780FF59
:104880000121C803FFF75CFF01212448FBF7F6FE76
:104890003820ADF8040003208DF8060018208DF8AC
:1048A000070001A91E48FBF75EFE4FF40040ADF87B
:1048B000040003208DF8060010208DF8070001A9E0
:1048C0001848FBF750FE4FF400411648FBF720FF55
:1048D0000020ADF808004FF48270ADF80A00002007
:1048E000ADF80C000220ADF80E000120ADF810006C
:1048F0004002ADF812000020ADF81400ADF816002B
:104900000720ADF8180002A9074800F01BF80121A4
:10491000054800F00BF807B000BD000000023000B1
:10492000000C014000080140003C004021B1028819
:1049300042F04002028004E002884FF6BF731A4042
:104940000280704710B50022028802F441520B88A1
:104950004C8823438C882343CC8823430C892343EE
:104960004C8923438C892343CC8923431A430280F7
:10497000838B4FF2FF74234083830B8A038210BD25
:10498000704710B500F002F810BD00000CB5002013
:10499000019000903348006840F48030314908604D
:1049A00000BF3048006800F4003000900198401CBF
:1049B0000190009818B90198B0F5A06FF1D129487D
:1049C000006800F4003010B10120009001E00020E8
:1049D00000900098012843D12348006840F010005F
:1049E000214908600846006820F003000860084676
:1049F000006840F0020008601A48406819494860A1
:104A00000846406848600846406840F48060486056
:104A10000846406820F47C1048600846406840F42E
:104A2000E81048600846006840F08070086000BFE9
:104A30000C48006800F000700028F9D00948406870
:104A400020F00300074948600846406840F0020033
:104A5000486000BF0348406800F00C000828F9D106
:104A60000CBD0000001002400020024010B51348A9
:104A7000006840F00100114908600846406810498C
:104A800008400E494860084600680E4908400B4936
:104A900008600846006820F48020086008464068E6
:104AA00020F4FE0048604FF41F008860FFF769FFA4
:104AB0004FF000600449086010BD00000010024083
:104AC0000000FFF8FFFFF6FE08ED00E030B589B00A
:104AD00005460C46012140F60500FFF751FE4FF454
:104AE0000060ADF8200018208DF8230003208DF819
:104AF000220008A91748FBF736FDADF81850ADF8AD
:104B000014400120ADF81A000020ADF8160005A9E8
:104B1000114800F08BF87020ADF804000120ADF8CA
:104B200006000020ADF80C004FF41040ADF80A006C
:104B300001A9094800F02EF80821074800F068F89C
:104B40000021054800F00AF80021034800F012F89F
:104B500009B030BD00080140002C014021B102889D
:104B600042F00102028004E002884FF6FE731A4010
:104B70000280704731B1B0F8442042F40042A0F8FE
:104B8000442005E0B0F84420C2F30E02A0F844200F
:104B90007047000070B5002200230024058C4EF6FB
:104BA000FF7635400584038C8488828B48F6FF7538
:104BB0002A404FF6FF452A400D884FF6FF7606EA59
:104BC00005252A434DF6FF752B400D8906EA05356C
:104BD0002B434D8806EA05352B430B4DA84202D0E6
:104BE0000A4DA84208D14BF6FF752C408D894FF62F
:104BF000FF7606EA85152C4384808283CD88A0F851
:104C00004050038470BD0000002C0140003401407E
:104C10000A460021818B4FF2FF7319404FF6FF7354
:104C200003EA0223194381837047000000220288AF
:104C30001D4B98420ED01D4B98420BD0B0F1804FC7
:104C400008D01B4B984205D01A4B984202D01A4B01
:104C5000984204D14FF68F731A404B881A43174B72
:104C6000984207D0164B984204D04FF6FF431A40A3
:104C7000CB881A4302808B8883850B8803850A4B77
:104C800098420BD0094B984208D00E4B984205D061
:104C90000D4B984202D00D4B984201D10B7A0386FE
:104CA0000123838270470000002C01400034014042
:104CB0000004004000080040000C004000100040CC
:104CC0000014004000400140004401400048014001
:104CD00010B540F225510A4800F066F870B108217D
:104CE000074800F03FF8064800F01AF9C4B205483A
:104CF000006818B1204603490968884710BD0000C4
:104D0000003801401C00002070B540F225511148C8
:104D100000F04AF8E8B108210E4800F023F80D48E9
:104D200000F0FEF8C4B20C480568681C0A49086027
:104D30000A4844550A48006818B1204608490968DD
:104D4000884705480068B0F5006F02D1002002498D
:104D5000086070BD0044004014000020D006002010
:104D60002000002001F40072B2F5007F00D100BFE6
:104D7000CA430280704721B1828942F40052828185
:104D800004E082894DF6FF731A4082817047024623
:104D90000020B1F5007F00D100BF13880B400BB19C
:104DA000012000E00020704770B502460024002377
:104DB0000025002040F66A16B14200D100BFC1F3C1
:104DC000421501F01F03012606FA03F3012D02D15B
:104DD0009689334006E0022D02D1168A334001E065
:104DE000968A33400C12012606FA04F416883440E1
:104DF00013B10CB1012000E0002070BDF0B50346F6
:104E0000002400260025002040F66A17B94200D190
:104E100000BF1846C1F3421401F01F06012707FA2C
:104E200006F5012C01D10C3004E0022C01D1103028
:104E300000E014301AB107682F43076002E00768EA
:104E4000AF430760F0BD00002DE9F04786B005468E
:104E50000E460024A24600BFA1460027B08900B13B
:104E600000BF2F462C8A4CF6FF700440F0880443A4
:104E70002C82AC894EF6F3100440B0883189084387
:104E8000718908430443AC81AC8A4FF6FF4004406B
:104E9000B0890443AC8201A8FFF782FC1F48874217
:104EA00002D1DDF810A001E0DDF80CA0A88900F423
:104EB000004040B10AEBCA0000EB0A10316849001B
:104EC000B0FBF1F807E00AEBCA0000EB0A1031680A
:104ED0008900B0FBF1F86420B8FBF0F00401200970
:104EE000642101FB1089A88900F4004040B1322000
:104EF00000EBC900B0FBF1F000F00700044308E04C
:104F0000322000EB09106421B0FBF1F000F00F003B
:104F100004432C8106B0BDE8F08700000038014052
:104F200001468888C0F308007047C1F308028280F8
:104F3000704700BFFEE700000FB4084B10B504A98E
:104F400002AA039800F01CF8044602A9002000F011
:104F5000F3F8204610BC5DF814FB0000395100083E
:104F600002E008C8121F08C1002AFAD17047704732
:104F7000002001E001C1121F002AFBD17047000090
:104F80002DE9FF4F8BB09A460F460546002606E0F6
:104F900025280BD052460D9990476D1C761C287819
:104FA0000028F5D10FB03046BDE8F08F0024A046B0
:104FB0000122604900E0044315F8013F203B02FA5A
:104FC00003F00842F7D128782E2817D115F8010FE1
:104FD00044F004042A280ED06FF02F022878A0F1A4
:104FE000300109290AD808EB880102EB410100EBE6
:104FF00001086D1CF2E757F8048B6D1C28786928AE
:105000003ED006DC0028CDD063280BD0642804D124
:1050100036E0732810D075284BD052460D99904732
:10502000761C85E017F8040B8DF8000000208DF841
:105030000100E946012003E057F8049B4FF0FF30E0
:1050400061074FF0000401D40AE0641C44450DDA06
:105050008442FADB19F804100029F6D106E0641C3A
:105060008442FCDB19F804100029F8D1264404E03E
:1050700019F8010B52460D999047641EF8D257E07B
:1050800001CF4FF00A0B002802DA40422D2102E046
:10509000210504D52B218DF82410012103E0E1071F
:1050A00005D02021F7E70DF1200908910CE000213F
:1050B000F9E701CF4FF00A0BF9E75946FBF717F96B
:1050C00001F1300209F8012D0028F6D1ADEB0900FD
:1050D00000F1200B600701D44FF00108D84502DD34
:1050E000A8EB0B0000E000208046002406E009A8A1
:1050F0005246005D0D999047641C761C08988442C6
:10510000F5DB04E0302052460D999047761CB8F14B
:105110000001A8F10108F5DC05E019F8010B524681
:105120000D999047761CBBF10001ABF1010BF4DC4B
:105130006D1C34E7092801000A68531C0B601070CD
:105140007047000000B587B00122002101A800F0DF
:1051500073FA012200210DF1050000F06DFA0DF146
:10516000060000F0C5F9084801880088401C064B7D
:10517000188004220DF1160000F05EFA162101A835
:1051800000F048FE07B000BD6000002010B50446E6
:1051900000F0D0F9204444B2204600F041FF10BD99
:1051A00008B501211020FFF7EBFA1020ADF8000040
:1051B00003208DF8020010208DF803006946044892
:1051C000FBF7D1F910210248FBF7A0FA08BD000057
:1051D0000010014010B54FF47A714FF42040FFF7F2
:1051E00075FC10BD10B502494868804710BD00002D
:1051F0002800002070B5044600254FF400610648E1
:10520000FBF754F800BFFFF7EDFF29466A1C95B283
:1052100060540028F7D170BDD40F002070B504464B
:105220000D460348294602682046904770BD00009D
:105230002800002070B50546002600BF2B480078E6
:10524000401C2A49087008460078012801D1FDF762
:105250001DFF00BFFBF756F900BF3046FAF78CFF81
:1052600000BF00BF00BF002405E028190121FFF79F
:10527000D5FF601C84B2285D0028F6D100BF00BFB6
:1052800000BFFAF775FF064600BFFBF721F900BF24
:1052900016480078401E1549087008460078D0B9B5
:1052A000FDF702FF1248008800280BDD00BFFBF766
:1052B00029F900BF3046FAF75FFF00BF00BFFDF7D6
:1052C000B7FE11E000BFFBF71DF900BF3046FAF74B
:1052D00053FF00BF08E000BFFBF714F900BF3046E2
:1052E000FAF74AFF00BF00BF00BF70BDA001002059
:1052F0005C01002010B502460B460020002107E0AB
:1053000000EB80046000545C303C20444C1C61B2D3
:105310009942F5DB10BD00000EB50DA10F48FFF757
:105320000BFE0E48FFF786FF00BF02A80021C8232E
:105330000A46CDE900100846FCF70AFC00BF084801
:10534000FFF758FF07A1064800F072FF0EBD0000EE
:1053500041542B43575141500D0A0000700F00205B
:10536000D40F00204F4B0000FEB504460D461746F3
:1053700005261DE02B46224611A11748FFF7DCFD4C
:105380001548FFF757FF00BF02A800210B46142263
:10539000CDE900100846FCF7DBFB00BF0F48FFF724
:1053A00029FF0FA10D4800F043FF08B90020FEBD02
:1053B000301EA6F10101CEB2DCDC4FF0FF30F6E783
:1053C00041542B43574A41503D222573222C22251C
:1053D00073220D0A00000000700F0020D40F00207F
:1053E0004F4B00007047000010B501221102024827
:1053F000FBF790F910BD0000000801407047000065
:105400001FB501210C20FFF7BBF90120ADF80C00FE
:1054100003208DF80E0010208DF80F0003A911480D
:10542000FBF7A1F841F21010ADF80C0003208DF845
:105430000E0010208DF80F0003A90B48FBF793F81E
:1054400001F038F9FFF7D0FF00F050FC00BF02A8D0
:10545000002164230A46CDE900100846FCF778FBDA
:1054600000BF1FBD000C0140000801400020704734
:1054700010B503460C46002114E00D4850F83100E9
:1054800098420DD10A4800EBC100C088A04207D164
:10549000074800EBC1008088904201D148B210BD9E
:1054A000481CC1B21429E8D34FF0FF30F7E70000E1
:1054B000D00E00200146024800EBC10070470000FA
:1054C000D00E002003490A8C028091F822108170CE
:1054D000704700003818002010B503210248FFF77C
:1054E00009FF40B210BD00005B180020012070478A
:1054F00010B50446102202492046FAF7BEFE10BD40
:105500003818002070B50446002500260BE005EB96
:1055100085004FF6FF7101EA4005A05D3038284450
:1055200085B2701CC6B2FFF75DFEA0553A28EED1D9
:10553000284670BD014890F9000070475E000020C9
:10554000642070470EB50024184890F900502CE0F4
:105550001748007878B1B4F5C87F01D101F028F878
:10556000124890F90000854209D001F053F80F4825
:1055700090F9005003E00D4890F90050002400BF5E
:1055800002A8002132230A46CDE900100846FCF7A4
:10559000DFFA00BF601C84B2B4F5C87F00DD0024D0
:1055A000C82C02D1052000F081FBD1E75E0000206D
:1055B0005F00002000B585B001210820FFF7E0F86A
:1055C0004FF44060ADF8100003208DF812001C204D
:1055D0008DF8130004A91548FAF7C5FF01218805C5
:1055E000FFF7AEF81248FBF7E5F8124800900020EC
:1055F000ADF804004BF6FF70ADF806003020ADF8B2
:1056000008004FF48060ADF80A000001ADF80C000E
:1056100069460748FBF7FEF801210548FBF7BEF88D
:1056200001210348FBF7A8F805B000BD000C0140BC
:1056300000580040A086010030B503460C4600210A
:1056400016E0551A6D1EAD0044FA05F505F00F0081
:10565000002805DB0A2803DA00F130055D5406E076
:105660000A2804DB0F2802DC00F157055D54491CB1
:105670009142E6DB30BD000010B50024144890F9DB
:10568000000030B101280BD0022810D003281CD113
:1056900014E0FFF72BFF10B101200D49087014E052
:1056A000FFF724FF10B10220094908700DE000F057
:1056B00093F9032006490870012400BFFFF716FF85
:1056C00010B900200249087000BF00BF204610BD7D
:1056D0005A00002010B5012291030748FBF71AF881
:1056E000012211020548FBF715F801228021034829
:1056F000FBF710F810BD0000000C01400010014045
:1057000000B58BB00AA8FBF7FFF90AA80321002215
:105710000592CDE90621089010464FF480711922B8
:10572000094BCDE90132CDE9031002200023074ADD
:1057300007A100900A48FBF7AFFC0AA8FBF7F6FBAD
:1057400000200BB000BD0000D0020020D5030008EF
:10575000417070205461736B205374617274000047
:10576000000200200EB5002450E0052C42D2DFE8F4
:1057700004F00314282F3300FFF77EFF60B10020F0
:1057800023490870FFF7A8FE0546FFF7FFFC00F06D
:1057900041F800F0FFFC01242CE01D48007860B9BE
:1057A000FFF7D0FC00BF02A800210B460122CDE983
:1057B00000100846FCF7CCF902E000F06BFA022476
:1057C00018E0FFF7B7FE08B9032400E0042411E055
:1057D000FFF708FE042400BFFFF74EFF20B1FFF7DC
:1057E0007BFE0546FFF7D2FCFFF7A4FE002800DD94
:1057F000022400BF00BF00BF02A80021C8230A4640
:10580000CDE900100846FCF7A3F900BFADE70000A2
:105810005F00002010B598B01422564913A8FAF77B
:105820002CFD1422534914310EA8FAF726FD142238
:105830005049283109A8FAF720FD14224D493C317E
:1058400004A8FAF71AFD4B4B50330FCB8DE80F002D
:105850000DF15100FFF736FE0DF10A00FFF732FEA1
:1058600000F056FB002802DA43A0FFF7C7FD002036
:1058700000F020FB002802DA42A0FFF7BFFDFFF78F
:105880004BFD002802DA3FA0FFF7B8FD012000F031
:105890006FFB002802DA3BA0FFF7B0FD032000F009
:1058A000FFFB002802DA3AA0FFF7A8FD00F0C4FBD6
:1058B000002802DA39A0FFF7A1FD032204A909A8F4
:1058C000FFF752FD002802DA38A0FFF797FD68467F
:1058D00000F078FB002802DA37A0FFF78FFD0EA951
:1058E00013A800F0B3FA002802DA35A0FFF786FD0E
:1058F000012000F001FC002802DA33A0FFF77EFD52
:10590000002404E0204600F0B7FD601CC4B2042C63
:10591000F8DB41F2D74211462D4800F0DBFD0028AC
:1059200002DA1AA0FFF76AFD42F2B92211462948AD
:1059300000F0D0FD002802DA14A0FFF75FFD42F26C
:10594000BA2211462348401C00F0C4FD002802DAA8
:105950000EA0FFF753FD42F2BB2211461D48C01CAA
:1059600000F0B8FD002802DA08A0FFF747FD18B0E4
:1059700010BD0000EC6600087365745F626F756EA1
:10598000640000007365745F6563686F0000000069
:105990007365745F6D6F6465000000007365745F0C
:1059A0006D61635F6164647200000000636F6E6E1E
:1059B0006563745F617000007365745F69700000F7
:1059C0007365745F617000007365745F6D75780056
:1059D0006501A8C00204A8C010B50548FAF771FC1B
:1059E0000446224602490348FAF747FC10BD00006E
:1059F00030000020381800202DE9F04F87B0804695
:105A0000894692469B4657E0FFF7ECFB05462B2D57
:105A10000AD100BF02A8002114230A46CDE90010D4
:105A20000846FCF795F818E05DB900BF02A8002110
:105A300014230A46CDE900100846FCF789F800BF98
:105A40003AE000BF02A8002101230A46CDE9001078
:105A50000846FCF77DF800BF2EE0002405E0FFF7C4
:105A6000C1FB04A90855601C84B2042CF7DB042296
:105A70001AA104A8FAF72CFC00B11DE0002405E0EF
:105A8000FFF7B0FB04A90855601C84B2022CF7DBB9
:105A90009DF810003038C0B2039004A8FFF732FD23
:105AA0000646002405E0FFF79DFB0AF80400601C91
:105AB00084B2B442F7DB00E0A6E700BF0398FFF72B
:105AC000F9FC07463868C8F80000B888A9F8000053
:105AD000ABF8006007B0BDE8F08F00004950442CDF
